{
  "contractName": "VibeStake",
  "abi": [
    {
      "inputs": [],
      "stateMutability": "nonpayable",
      "type": "constructor"
    },
    {
      "anonymous": false,
      "inputs": [
        {
          "indexed": false,
          "internalType": "uint256",
          "name": "demoID",
          "type": "uint256"
        },
        {
          "indexed": false,
          "internalType": "string",
          "name": "demoName",
          "type": "string"
        },
        {
          "indexed": false,
          "internalType": "string",
          "name": "artistName",
          "type": "string"
        },
        {
          "indexed": false,
          "internalType": "uint256",
          "name": "donationDays",
          "type": "uint256"
        },
        {
          "indexed": false,
          "internalType": "string",
          "name": "ipfsHash",
          "type": "string"
        }
      ],
      "name": "demoAdded",
      "type": "event"
    },
    {
      "anonymous": false,
      "inputs": [
        {
          "indexed": false,
          "internalType": "uint256",
          "name": "demoID",
          "type": "uint256"
        },
        {
          "indexed": false,
          "internalType": "uint256",
          "name": "donationAmount",
          "type": "uint256"
        },
        {
          "indexed": false,
          "internalType": "address",
          "name": "listenerAddress",
          "type": "address"
        }
      ],
      "name": "demoDonation",
      "type": "event"
    },
    {
      "anonymous": false,
      "inputs": [
        {
          "indexed": false,
          "internalType": "uint256",
          "name": "songID",
          "type": "uint256"
        },
        {
          "indexed": false,
          "internalType": "string",
          "name": "songName",
          "type": "string"
        },
        {
          "indexed": false,
          "internalType": "string",
          "name": "artistName",
          "type": "string"
        },
        {
          "indexed": false,
          "internalType": "uint256",
          "name": "platformID",
          "type": "uint256"
        },
        {
          "indexed": false,
          "internalType": "string",
          "name": "platformName",
          "type": "string"
        },
        {
          "indexed": false,
          "internalType": "uint256",
          "name": "purchaseAmount",
          "type": "uint256"
        },
        {
          "indexed": false,
          "internalType": "uint256",
          "name": "purchaseDays",
          "type": "uint256"
        }
      ],
      "name": "platformPurchase",
      "type": "event"
    },
    {
      "anonymous": false,
      "inputs": [
        {
          "indexed": false,
          "internalType": "uint256",
          "name": "songID",
          "type": "uint256"
        },
        {
          "indexed": false,
          "internalType": "string",
          "name": "songName",
          "type": "string"
        },
        {
          "indexed": false,
          "internalType": "string",
          "name": "artistName",
          "type": "string"
        },
        {
          "indexed": false,
          "internalType": "string",
          "name": "genre",
          "type": "string"
        },
        {
          "indexed": false,
          "internalType": "address",
          "name": "artistAddress",
          "type": "address"
        },
        {
          "indexed": false,
          "internalType": "string",
          "name": "ipfsHash",
          "type": "string"
        }
      ],
      "name": "songAdded",
      "type": "event"
    },
    {
      "anonymous": false,
      "inputs": [
        {
          "indexed": false,
          "internalType": "uint256",
          "name": "songID",
          "type": "uint256"
        },
        {
          "indexed": false,
          "internalType": "uint256",
          "name": "price",
          "type": "uint256"
        }
      ],
      "name": "songPriceSet",
      "type": "event"
    },
    {
      "inputs": [
        {
          "internalType": "uint256",
          "name": "",
          "type": "uint256"
        },
        {
          "internalType": "uint256",
          "name": "",
          "type": "uint256"
        }
      ],
      "name": "artistToDemos",
      "outputs": [
        {
          "internalType": "uint256",
          "name": "",
          "type": "uint256"
        }
      ],
      "stateMutability": "view",
      "type": "function",
      "constant": true
    },
    {
      "inputs": [
        {
          "internalType": "uint256",
          "name": "",
          "type": "uint256"
        },
        {
          "internalType": "uint256",
          "name": "",
          "type": "uint256"
        }
      ],
      "name": "artistToSongs",
      "outputs": [
        {
          "internalType": "uint256",
          "name": "",
          "type": "uint256"
        }
      ],
      "stateMutability": "view",
      "type": "function",
      "constant": true
    },
    {
      "inputs": [
        {
          "internalType": "address",
          "name": "",
          "type": "address"
        }
      ],
      "name": "identifyUser",
      "outputs": [
        {
          "internalType": "enum VibeStake.UserType",
          "name": "",
          "type": "uint8"
        }
      ],
      "stateMutability": "view",
      "type": "function",
      "constant": true
    },
    {
      "inputs": [
        {
          "internalType": "address",
          "name": "",
          "type": "address"
        },
        {
          "internalType": "uint256",
          "name": "",
          "type": "uint256"
        }
      ],
      "name": "listenerOwnedSongs",
      "outputs": [
        {
          "internalType": "uint256",
          "name": "",
          "type": "uint256"
        }
      ],
      "stateMutability": "view",
      "type": "function",
      "constant": true
    },
    {
      "inputs": [
        {
          "internalType": "uint256",
          "name": "",
          "type": "uint256"
        },
        {
          "internalType": "uint256",
          "name": "",
          "type": "uint256"
        }
      ],
      "name": "platformToSongs",
      "outputs": [
        {
          "internalType": "uint256",
          "name": "",
          "type": "uint256"
        }
      ],
      "stateMutability": "view",
      "type": "function",
      "constant": true
    },
    {
      "inputs": [
        {
          "internalType": "uint256",
          "name": "_artistID",
          "type": "uint256"
        }
      ],
      "name": "getDemosByArtist",
      "outputs": [
        {
          "internalType": "uint256[]",
          "name": "",
          "type": "uint256[]"
        }
      ],
      "stateMutability": "view",
      "type": "function",
      "constant": true
    },
    {
      "inputs": [],
      "name": "getDemoCount",
      "outputs": [
        {
          "internalType": "uint256",
          "name": "",
          "type": "uint256"
        }
      ],
      "stateMutability": "view",
      "type": "function",
      "constant": true
    },
    {
      "inputs": [
        {
          "internalType": "uint256",
          "name": "_demoID",
          "type": "uint256"
        }
      ],
      "name": "getDemoDetails",
      "outputs": [
        {
          "internalType": "string",
          "name": "",
          "type": "string"
        },
        {
          "internalType": "string",
          "name": "",
          "type": "string"
        },
        {
          "internalType": "string",
          "name": "",
          "type": "string"
        },
        {
          "internalType": "uint256",
          "name": "",
          "type": "uint256"
        },
        {
          "internalType": "string",
          "name": "",
          "type": "string"
        }
      ],
      "stateMutability": "view",
      "type": "function",
      "constant": true
    },
    {
      "inputs": [
        {
          "internalType": "address",
          "name": "_user",
          "type": "address"
        }
      ],
      "name": "getUserType",
      "outputs": [
        {
          "internalType": "enum VibeStake.UserType",
          "name": "",
          "type": "uint8"
        }
      ],
      "stateMutability": "view",
      "type": "function",
      "constant": true
    },
    {
      "inputs": [],
      "name": "getArtistDetails",
      "outputs": [
        {
          "internalType": "string",
          "name": "",
          "type": "string"
        },
        {
          "internalType": "uint256",
          "name": "",
          "type": "uint256"
        },
        {
          "internalType": "uint256[]",
          "name": "",
          "type": "uint256[]"
        }
      ],
      "stateMutability": "view",
      "type": "function",
      "constant": true
    },
    {
      "inputs": [
        {
          "internalType": "string",
          "name": "_name",
          "type": "string"
        }
      ],
      "name": "registerArtist",
      "outputs": [],
      "stateMutability": "nonpayable",
      "type": "function"
    },
    {
      "inputs": [
        {
          "internalType": "string",
          "name": "_name",
          "type": "string"
        }
      ],
      "name": "registerListener",
      "outputs": [],
      "stateMutability": "nonpayable",
      "type": "function"
    },
    {
      "inputs": [
        {
          "internalType": "string",
          "name": "_name",
          "type": "string"
        }
      ],
      "name": "registerPlatform",
      "outputs": [],
      "stateMutability": "nonpayable",
      "type": "function"
    },
    {
      "inputs": [],
      "name": "getNumSongs",
      "outputs": [
        {
          "internalType": "uint256",
          "name": "",
          "type": "uint256"
        }
      ],
      "stateMutability": "view",
      "type": "function",
      "constant": true
    },
    {
      "inputs": [],
      "name": "getListenerDetails",
      "outputs": [
        {
          "internalType": "string",
          "name": "",
          "type": "string"
        },
        {
          "internalType": "uint256",
          "name": "",
          "type": "uint256"
        },
        {
          "internalType": "uint256[]",
          "name": "",
          "type": "uint256[]"
        }
      ],
      "stateMutability": "view",
      "type": "function",
      "constant": true
    },
    {
      "inputs": [
        {
          "internalType": "string",
          "name": "_demoname",
          "type": "string"
        },
        {
          "internalType": "string",
          "name": "_genre",
          "type": "string"
        },
        {
          "internalType": "uint256",
          "name": "_donationdays",
          "type": "uint256"
        },
        {
          "internalType": "string",
          "name": "_ipfshash",
          "type": "string"
        }
      ],
      "name": "addDemo",
      "outputs": [],
      "stateMutability": "nonpayable",
      "type": "function"
    },
    {
      "inputs": [
        {
          "internalType": "uint256",
          "name": "_demoID",
          "type": "uint256"
        }
      ],
      "name": "donateDemoListener",
      "outputs": [],
      "stateMutability": "payable",
      "type": "function",
      "payable": true
    },
    {
      "inputs": [
        {
          "internalType": "uint256",
          "name": "_demoID",
          "type": "uint256"
        }
      ],
      "name": "returnDonation",
      "outputs": [],
      "stateMutability": "nonpayable",
      "type": "function"
    },
    {
      "inputs": [
        {
          "internalType": "string",
          "name": "_songName",
          "type": "string"
        },
        {
          "internalType": "string",
          "name": "_genre",
          "type": "string"
        },
        {
          "internalType": "uint256",
          "name": "_demoID",
          "type": "uint256"
        },
        {
          "internalType": "string",
          "name": "_ipfshash",
          "type": "string"
        }
      ],
      "name": "addSong",
      "outputs": [],
      "stateMutability": "nonpayable",
      "type": "function"
    },
    {
      "inputs": [
        {
          "internalType": "uint256",
          "name": "_songID",
          "type": "uint256"
        },
        {
          "internalType": "uint256",
          "name": "_price",
          "type": "uint256"
        }
      ],
      "name": "setSongPrice",
      "outputs": [],
      "stateMutability": "nonpayable",
      "type": "function"
    },
    {
      "inputs": [
        {
          "internalType": "uint256",
          "name": "_songID",
          "type": "uint256"
        },
        {
          "internalType": "uint256",
          "name": "_platformID",
          "type": "uint256"
        },
        {
          "internalType": "uint256",
          "name": "_purchaseAmount",
          "type": "uint256"
        },
        {
          "internalType": "uint256",
          "name": "_purchaseDays",
          "type": "uint256"
        }
      ],
      "name": "purchaseSong",
      "outputs": [],
      "stateMutability": "nonpayable",
      "type": "function"
    }
  ],
  "bytecode": "0x608060405234801561001057600080fd5b506000808190555060006001819055506000600281905550600060038190555060006004819055506146c6806100476000396000f3fe60806040526004361061012a5760003560e01c80638b26bf77116100ab578063a245b69e1161006f578063a245b69e1461040b578063a2dad5a614610436578063b2f7d0ab1461045f578063cf7eacee14610488578063cf993cb8146104c5578063d35358c9146104ee5761012a565b80638b26bf77146103025780638b3f863f1461033f5780639355d4191461037c5780639d880d62146103a5578063a16b41c6146103ce5761012a565b806354fc6f4c116100f257806354fc6f4c1461022a578063614409c8146102465780637dd162981461026f5780637f7a4510146102985780638afabd57146102c55761012a565b80630c58d5b11461012f5780630f613a561461015a578063149e3f8e146101835780631d5f965a146101c05780634effb50e146101fd575b600080fd5b34801561013b57600080fd5b5061014461052f565b60405161015191906133e9565b60405180910390f35b34801561016657600080fd5b50610181600480360381019061017c919061355e565b610539565b005b34801561018f57600080fd5b506101aa60048036038101906101a591906135d3565b6106ef565b6040516101b791906136be565b60405180910390f35b3480156101cc57600080fd5b506101e760048036038101906101e291906136e0565b61075a565b6040516101f491906133e9565b60405180910390f35b34801561020957600080fd5b5061021261078b565b604051610221939291906137a8565b60405180910390f35b610244600480360381019061023f91906135d3565b6109d8565b005b34801561025257600080fd5b5061026d600480360381019061026891906137ed565b610c54565b005b34801561027b57600080fd5b50610296600480360381019061029191906136e0565b611602565b005b3480156102a457600080fd5b506102ad61180a565b6040516102bc939291906137a8565b60405180910390f35b3480156102d157600080fd5b506102ec60048036038101906102e791906136e0565b611a85565b6040516102f991906133e9565b60405180910390f35b34801561030e57600080fd5b5061032960048036038101906103249190613906565b611ab6565b60405161033691906133e9565b60405180910390f35b34801561034b57600080fd5b5061036660048036038101906103619190613946565b611ae7565b60405161037391906139ea565b60405180910390f35b34801561038857600080fd5b506103a3600480360381019061039e919061355e565b611b3d565b005b3480156103b157600080fd5b506103cc60048036038101906103c791906135d3565b611d55565b005b3480156103da57600080fd5b506103f560048036038101906103f09190613946565b6120e7565b60405161040291906139ea565b60405180910390f35b34801561041757600080fd5b50610420612107565b60405161042d91906133e9565b60405180910390f35b34801561044257600080fd5b5061045d6004803603810190610458919061355e565b612111565b005b34801561046b57600080fd5b5061048660048036038101906104819190613a05565b6122c7565b005b34801561049457600080fd5b506104af60048036038101906104aa91906136e0565b6128cb565b6040516104bc91906133e9565b60405180910390f35b3480156104d157600080fd5b506104ec60048036038101906104e791906137ed565b6128fc565b005b3480156104fa57600080fd5b50610515600480360381019061051091906135d3565b612e63565b604051610526959493929190613a6c565b60405180910390f35b6000600454905090565b6000600381111561054d5761054c613973565b5b600560003373ffffffffffffffffffffffffffffffffffffffff1673ffffffffffffffffffffffffffffffffffffffff16815260200190815260200160002060009054906101000a900460ff1660038111156105ac576105ab613973565b5b146105ec576040517f08c379a00000000000000000000000000000000000000000000000000000000081526004016105e390613b27565b60405180910390fd5b600260008154809291906105ff90613b76565b91905055506003600560003373ffffffffffffffffffffffffffffffffffffffff1673ffffffffffffffffffffffffffffffffffffffff16815260200190815260200160002060006101000a81548160ff0219169083600381111561066757610666613973565b5b02179055506040518060400160405280828152602001600254815250600860003373ffffffffffffffffffffffffffffffffffffffff1673ffffffffffffffffffffffffffffffffffffffff16815260200190815260200160002060008201518160000190805190602001906106de92919061317a565b506020820151816001015590505050565b6060600c600083815260200190815260200160002080548060200260200160405190810160405280929190818152602001828054801561074e57602002820191906000526020600020905b81548152602001906001019080831161073a575b50505050509050919050565b600e602052816000526040600020818154811061077657600080fd5b90600052602060002001600091509150505481565b606060006060600260038111156107a5576107a4613973565b5b600560003373ffffffffffffffffffffffffffffffffffffffff1673ffffffffffffffffffffffffffffffffffffffff16815260200190815260200160002060009054906101000a900460ff16600381111561080457610803613973565b5b14610844576040517f08c379a000000000000000000000000000000000000000000000000000000000815260040161083b90613c0a565b60405180910390fd5b6000600760003373ffffffffffffffffffffffffffffffffffffffff1673ffffffffffffffffffffffffffffffffffffffff1681526020019081526020016000206040518060400160405290816000820180546108a090613c59565b80601f01602080910402602001604051908101604052809291908181526020018280546108cc90613c59565b80156109195780601f106108ee57610100808354040283529160200191610919565b820191906000526020600020905b8154815290600101906020018083116108fc57829003601f168201915b5050505050815260200160018201548152505090506000600b60003373ffffffffffffffffffffffffffffffffffffffff1673ffffffffffffffffffffffffffffffffffffffff1681526020019081526020016000208054806020026020016040519081016040528092919081815260200182805480156109b957602002820191906000526020600020905b8154815260200190600101908083116109a5575b5050505050905081600001518260200151829450945094505050909192565b600260038111156109ec576109eb613973565b5b600560003373ffffffffffffffffffffffffffffffffffffffff1673ffffffffffffffffffffffffffffffffffffffff16815260200190815260200160002060009054906101000a900460ff166003811115610a4b57610a4a613973565b5b14610a8b576040517f08c379a0000000000000000000000000000000000000000000000000000000008152600401610a8290613c0a565b60405180910390fd5b6000600a60008381526020019081526020016000206004015403610ae4576040517f08c379a0000000000000000000000000000000000000000000000000000000008152600401610adb90613cd6565b60405180910390fd5b60003411610b27576040517f08c379a0000000000000000000000000000000000000000000000000000000008152600401610b1e90613d68565b60405180910390fd5b610b2f613200565b818160000181815250503481602001818152505033816040019073ffffffffffffffffffffffffffffffffffffffff16908173ffffffffffffffffffffffffffffffffffffffff1681525050600f6000838152602001908152602001600020819080600181540180825580915050600190039060005260206000209060030201600090919091909150600082015181600001556020820151816001015560408201518160020160006101000a81548173ffffffffffffffffffffffffffffffffffffffff021916908373ffffffffffffffffffffffffffffffffffffffff16021790555050507f196e38a5126f98ce5413c5d05650475feb184b718054b46a1bd5bc7107b26ca9823433604051610c4893929190613d97565b60405180910390a15050565b60016003811115610c6857610c67613973565b5b600560003373ffffffffffffffffffffffffffffffffffffffff1673ffffffffffffffffffffffffffffffffffffffff16815260200190815260200160002060009054906101000a900460ff166003811115610cc757610cc6613973565b5b14610d07576040517f08c379a0000000000000000000000000000000000000000000000000000000008152600401610cfe90613e1a565b60405180910390fd5b6000600a60008481526020019081526020016000206004015403610d60576040517f08c379a0000000000000000000000000000000000000000000000000000000008152600401610d5790613cd6565b60405180910390fd5b600d81604051610d709190613e76565b908152602001604051809103902060009054906101000a900460ff1615610dcc576040517f08c379a0000000000000000000000000000000000000000000000000000000008152600401610dc390613eff565b60405180910390fd5b600660003373ffffffffffffffffffffffffffffffffffffffff1673ffffffffffffffffffffffffffffffffffffffff16815260200190815260200160002060010154600a60008481526020019081526020016000206002015414610e66576040517f08c379a0000000000000000000000000000000000000000000000000000000008152600401610e5d90613f6b565b60405180910390fd5b600160046000828254610e799190613f8b565b925050819055506000600960006004548152602001908152602001600020905084816000019080519060200190610eb192919061317a565b50600660003373ffffffffffffffffffffffffffffffffffffffff1673ffffffffffffffffffffffffffffffffffffffff16815260200190815260200160002060000181600101908054610f0490613c59565b610f0f929190613237565b50600660003373ffffffffffffffffffffffffffffffffffffffff1673ffffffffffffffffffffffffffffffffffffffff16815260200190815260200160002060010154816002018190555083816003019080519060200190610f7392919061317a565b506004548160040181905550600660003373ffffffffffffffffffffffffffffffffffffffff1673ffffffffffffffffffffffffffffffffffffffff16815260200190815260200160002060020160009054906101000a900473ffffffffffffffffffffffffffffffffffffffff168160050160006101000a81548173ffffffffffffffffffffffffffffffffffffffff021916908373ffffffffffffffffffffffffffffffffffffffff1602179055508181600701908051906020019061103c92919061317a565b50600081600801819055506001600d836040516110599190613e76565b908152602001604051809103902060006101000a81548160ff021916908315150217905550600e6000600660003373ffffffffffffffffffffffffffffffffffffffff1673ffffffffffffffffffffffffffffffffffffffff168152602001908152602001600020600101548152602001908152602001600020600454908060018154018082558091505060019003906000526020600020016000909190919091505542601160006004548152602001908152602001600020819055506000600a6000858152602001908152602001600020600601805461113990613c59565b80601f016020809104026020016040519081016040528092919081815260200182805461116590613c59565b80156111b25780601f10611187576101008083540402835291602001916111b2565b820191906000526020600020905b81548152906001019060200180831161119557829003601f168201915b50505050509050600a6000858152602001908152602001600020600080820160006111dd91906132c4565b6001820160006111ed91906132c4565b600282016000905560038201600061120591906132c4565b6004820160009055600582016000905560068201600061122591906132c4565b50506000600d826040516112399190613e76565b908152602001604051809103902060006101000a81548160ff021916908315150217905550600080600f600087815260200190815260200160002080549050905060005b818110156112dc57600f600088815260200190815260200160002081815481106112aa576112a9613fe1565b5b906000526020600020906003020160010154836112c79190613f8b565b925080806112d490613b76565b91505061127d565b5060005b8181101561144957846009016040518060400160405280856064600f60008d8152602001908152602001600020868154811061131f5761131e613fe1565b5b90600052602060002090600302016001015461133b9190614010565b6113459190614099565b8152602001600f60008b8152602001908152602001600020848154811061136f5761136e613fe1565b5b906000526020600020906003020160020160009054906101000a900473ffffffffffffffffffffffffffffffffffffffff1673ffffffffffffffffffffffffffffffffffffffff1681525090806001815401808255809150506001900390600052602060002090600202016000909190919091506000820151816000015560208201518160010160006101000a81548173ffffffffffffffffffffffffffffffffffffffff021916908373ffffffffffffffffffffffffffffffffffffffff1602179055505050808061144190613b76565b9150506112e0565b50600f600087815260200190815260200160002060006114699190613304565b600660003373ffffffffffffffffffffffffffffffffffffffff1673ffffffffffffffffffffffffffffffffffffffff16815260200190815260200160002060020160009054906101000a900473ffffffffffffffffffffffffffffffffffffffff1673ffffffffffffffffffffffffffffffffffffffff166108fc839081150290604051600060405180830381858888f19350505050158015611511573d6000803e3d6000fd5b507f9e3391616f7c1585d85eec5f506c5e67ce1dcc035a91b5a636c1a0444d3f5eaa60045489600660003373ffffffffffffffffffffffffffffffffffffffff1673ffffffffffffffffffffffffffffffffffffffff1681526020019081526020016000206000018a600660003373ffffffffffffffffffffffffffffffffffffffff1673ffffffffffffffffffffffffffffffffffffffff16815260200190815260200160002060020160009054906101000a900473ffffffffffffffffffffffffffffffffffffffff168a6040516115f0969594939291906141be565b60405180910390a15050505050505050565b6001600381111561161657611615613973565b5b600560003373ffffffffffffffffffffffffffffffffffffffff1673ffffffffffffffffffffffffffffffffffffffff16815260200190815260200160002060009054906101000a900460ff16600381111561167557611674613973565b5b146116b5576040517f08c379a00000000000000000000000000000000000000000000000000000000081526004016116ac90613e1a565b60405180910390fd5b600060096000848152602001908152602001600020600401540361170e576040517f08c379a000000000000000000000000000000000000000000000000000000000815260040161170590614287565b60405180910390fd5b3373ffffffffffffffffffffffffffffffffffffffff166009600084815260200190815260200160002060050160009054906101000a900473ffffffffffffffffffffffffffffffffffffffff1673ffffffffffffffffffffffffffffffffffffffff16146117b2576040517f08c379a00000000000000000000000000000000000000000000000000000000081526004016117a9906142f3565b60405180910390fd5b8060096000848152602001908152602001600020600801819055507f7d1ff9bc0f8a33225a36b0cb10a74d335d10e8664478664caff09834ad3fac2a82826040516117fe929190614313565b60405180910390a15050565b6060600060606001600381111561182457611823613973565b5b600560003373ffffffffffffffffffffffffffffffffffffffff1673ffffffffffffffffffffffffffffffffffffffff16815260200190815260200160002060009054906101000a900460ff16600381111561188357611882613973565b5b146118c3576040517f08c379a00000000000000000000000000000000000000000000000000000000081526004016118ba90613e1a565b60405180910390fd5b6000600660003373ffffffffffffffffffffffffffffffffffffffff1673ffffffffffffffffffffffffffffffffffffffff16815260200190815260200160002060405180606001604052908160008201805461191f90613c59565b80601f016020809104026020016040519081016040528092919081815260200182805461194b90613c59565b80156119985780601f1061196d57610100808354040283529160200191611998565b820191906000526020600020905b81548152906001019060200180831161197b57829003601f168201915b50505050508152602001600182015481526020016002820160009054906101000a900473ffffffffffffffffffffffffffffffffffffffff1673ffffffffffffffffffffffffffffffffffffffff1673ffffffffffffffffffffffffffffffffffffffff168152505090506000600e600083602001518152602001908152602001600020805480602002602001604051908101604052809291908181526020018280548015611a6657602002820191906000526020600020905b815481526020019060010190808311611a52575b5050505050905081600001518260200151829450945094505050909192565b600c6020528160005260406000208181548110611aa157600080fd5b90600052602060002001600091509150505481565b600b6020528160005260406000208181548110611ad257600080fd5b90600052602060002001600091509150505481565b6000600560008373ffffffffffffffffffffffffffffffffffffffff1673ffffffffffffffffffffffffffffffffffffffff16815260200190815260200160002060009054906101000a900460ff169050919050565b60006003811115611b5157611b50613973565b5b600560003373ffffffffffffffffffffffffffffffffffffffff1673ffffffffffffffffffffffffffffffffffffffff16815260200190815260200160002060009054906101000a900460ff166003811115611bb057611baf613973565b5b14611bf0576040517f08c379a0000000000000000000000000000000000000000000000000000000008152600401611be790613b27565b60405180910390fd5b600080815480929190611c0290613b76565b91905055506001600560003373ffffffffffffffffffffffffffffffffffffffff1673ffffffffffffffffffffffffffffffffffffffff16815260200190815260200160002060006101000a81548160ff02191690836003811115611c6a57611c69613973565b5b0217905550604051806060016040528082815260200160005481526020013373ffffffffffffffffffffffffffffffffffffffff16815250600660003373ffffffffffffffffffffffffffffffffffffffff1673ffffffffffffffffffffffffffffffffffffffff1681526020019081526020016000206000820151816000019080519060200190611cfd92919061317a565b506020820151816001015560408201518160020160006101000a81548173ffffffffffffffffffffffffffffffffffffffff021916908373ffffffffffffffffffffffffffffffffffffffff16021790555090505050565b60026003811115611d6957611d68613973565b5b600560003373ffffffffffffffffffffffffffffffffffffffff1673ffffffffffffffffffffffffffffffffffffffff16815260200190815260200160002060009054906101000a900460ff166003811115611dc857611dc7613973565b5b14611e08576040517f08c379a0000000000000000000000000000000000000000000000000000000008152600401611dff90613c0a565b60405180910390fd5b6000600a60008381526020019081526020016000206004015403611e61576040517f08c379a0000000000000000000000000000000000000000000000000000000008152600401611e5890613cd6565b60405180910390fd5b62015180600a600083815260200190815260200160002060050154611e869190614010565b6012600083815260200190815260200160002054611ea49190613f8b565b4211611ee5576040517f08c379a0000000000000000000000000000000000000000000000000000000008152600401611edc90614388565b60405180910390fd5b60005b600f6000838152602001908152602001600020805490508110156120e3573373ffffffffffffffffffffffffffffffffffffffff16600f60008481526020019081526020016000208281548110611f4257611f41613fe1565b5b906000526020600020906003020160020160009054906101000a900473ffffffffffffffffffffffffffffffffffffffff1673ffffffffffffffffffffffffffffffffffffffff16036120d057600f60008381526020019081526020016000208181548110611fb457611fb3613fe1565b5b906000526020600020906003020160020160009054906101000a900473ffffffffffffffffffffffffffffffffffffffff1673ffffffffffffffffffffffffffffffffffffffff166108fc600f6000858152602001908152602001600020838154811061202457612023613fe1565b5b9060005260206000209060030201600101549081150290604051600060405180830381858888f19350505050158015612061573d6000803e3d6000fd5b50600f6000838152602001908152602001600020818154811061208757612086613fe1565b5b906000526020600020906003020160008082016000905560018201600090556002820160006101000a81549073ffffffffffffffffffffffffffffffffffffffff021916905550505b80806120db90613b76565b915050611ee8565b5050565b60056020528060005260406000206000915054906101000a900460ff1681565b6000600354905090565b6000600381111561212557612124613973565b5b600560003373ffffffffffffffffffffffffffffffffffffffff1673ffffffffffffffffffffffffffffffffffffffff16815260200190815260200160002060009054906101000a900460ff16600381111561218457612183613973565b5b146121c4576040517f08c379a00000000000000000000000000000000000000000000000000000000081526004016121bb90613b27565b60405180910390fd5b600160008154809291906121d790613b76565b91905055506002600560003373ffffffffffffffffffffffffffffffffffffffff1673ffffffffffffffffffffffffffffffffffffffff16815260200190815260200160002060006101000a81548160ff0219169083600381111561223f5761223e613973565b5b02179055506040518060400160405280828152602001600154815250600760003373ffffffffffffffffffffffffffffffffffffffff1673ffffffffffffffffffffffffffffffffffffffff16815260200190815260200160002060008201518160000190805190602001906122b692919061317a565b506020820151816001015590505050565b6003808111156122da576122d9613973565b5b600560003373ffffffffffffffffffffffffffffffffffffffff1673ffffffffffffffffffffffffffffffffffffffff16815260200190815260200160002060009054906101000a900460ff16600381111561233957612338613973565b5b14612379576040517f08c379a0000000000000000000000000000000000000000000000000000000008152600401612370906143f4565b60405180910390fd5b60006009600086815260200190815260200160002060040154036123d2576040517f08c379a00000000000000000000000000000000000000000000000000000000081526004016123c990614287565b60405180910390fd5b82600860003373ffffffffffffffffffffffffffffffffffffffff1673ffffffffffffffffffffffffffffffffffffffff1681526020019081526020016000206001015414612456576040517f08c379a000000000000000000000000000000000000000000000000000000000815260040161244d90614460565b60405180910390fd5b8060096000868152602001908152602001600020600801546124789190614010565b82116124b9576040517f08c379a00000000000000000000000000000000000000000000000000000000081526004016124b0906144f2565b60405180910390fd5b600081116124fc576040517f08c379a00000000000000000000000000000000000000000000000000000000081526004016124f390614584565b60405180910390fd5b60006064605a8461250d9190614010565b6125179190614099565b905060006064600a8561252a9190614010565b6125349190614099565b90506009600087815260200190815260200160002060050160009054906101000a900473ffffffffffffffffffffffffffffffffffffffff1673ffffffffffffffffffffffffffffffffffffffff166108fc839081150290604051600060405180830381858888f193505050501580156125b2573d6000803e3d6000fd5b506000805b600f60008981526020019081526020016000208054905081101561262c57600f600089815260200190815260200160002081815481106125fa576125f9613fe1565b5b906000526020600020906003020160010154826126179190613f8b565b9150808061262490613b76565b9150506125b7565b5060005b600960008981526020019081526020016000206009018054905081101561275a5760006064600960008b8152602001908152602001600020600901838154811061267d5761267c613fe1565b5b9060005260206000209060020201600001548561269a9190614010565b6126a49190614099565b9050600960008a815260200190815260200160002060090182815481106126ce576126cd613fe1565b5b906000526020600020906002020160010160009054906101000a900473ffffffffffffffffffffffffffffffffffffffff1673ffffffffffffffffffffffffffffffffffffffff166108fc829081150290604051600060405180830381858888f19350505050158015612745573d6000803e3d6000fd5b5050808061275290613b76565b915050612630565b507f13899f95395f1cafe16eb29d53534efdf906dd3aa049a7bf9986c3e7a6539ffe87600960008a8152602001908152602001600020600001600960008b8152602001908152602001600020600101600860003373ffffffffffffffffffffffffffffffffffffffff1673ffffffffffffffffffffffffffffffffffffffff16815260200190815260200160002060010154600860003373ffffffffffffffffffffffffffffffffffffffff1673ffffffffffffffffffffffffffffffffffffffff1681526020019081526020016000206000018a8a60405161284397969594939291906145a4565b60405180910390a1601060008781526020019081526020016000208790806001815401808255809150506001900390600052602060002001600090919091909150556009600088815260200190815260200160002060060186908060018154018082558091505060019003906000526020600020016000909190919091505550505050505050565b601060205281600052604060002081815481106128e757600080fd5b90600052602060002001600091509150505481565b600160038111156129105761290f613973565b5b600560003373ffffffffffffffffffffffffffffffffffffffff1673ffffffffffffffffffffffffffffffffffffffff16815260200190815260200160002060009054906101000a900460ff16600381111561296f5761296e613973565b5b146129af576040517f08c379a00000000000000000000000000000000000000000000000000000000081526004016129a690613e1a565b60405180910390fd5b600d816040516129bf9190613e76565b908152602001604051809103902060009054906101000a900460ff1615612a1b576040517f08c379a0000000000000000000000000000000000000000000000000000000008152600401612a1290613eff565b60405180910390fd5b600160036000828254612a2e9190613f8b565b92505081905550612a3d613328565b848160000181905250600660003373ffffffffffffffffffffffffffffffffffffffff1673ffffffffffffffffffffffffffffffffffffffff1681526020019081526020016000206000018054612a9390613c59565b80601f0160208091040260200160405190810160405280929190818152602001828054612abf90613c59565b8015612b0c5780601f10612ae157610100808354040283529160200191612b0c565b820191906000526020600020905b815481529060010190602001808311612aef57829003601f168201915b50505050508160200181905250600660003373ffffffffffffffffffffffffffffffffffffffff1673ffffffffffffffffffffffffffffffffffffffff16815260200190815260200160002060010154816040018181525050838160600181905250600354816080018181525050600660003373ffffffffffffffffffffffffffffffffffffffff1673ffffffffffffffffffffffffffffffffffffffff1681526020019081526020016000206000018054612bc790613c59565b80601f0160208091040260200160405190810160405280929190818152602001828054612bf390613c59565b8015612c405780601f10612c1557610100808354040283529160200191612c40565b820191906000526020600020905b815481529060010190602001808311612c2357829003601f168201915b50505050508160200181905250828160a0018181525050818160c0018190525080600a600060035481526020019081526020016000206000820151816000019080519060200190612c9292919061317a565b506020820151816001019080519060200190612caf92919061317a565b50604082015181600201556060820151816003019080519060200190612cd692919061317a565b506080820151816004015560a0820151816005015560c0820151816006019080519060200190612d0792919061317a565b509050506001600d83604051612d1d9190613e76565b908152602001604051809103902060006101000a81548160ff021916908315150217905550600c6000600660003373ffffffffffffffffffffffffffffffffffffffff1673ffffffffffffffffffffffffffffffffffffffff168152602001908152602001600020600101548152602001908152602001600020600354908060018154018082558091505060019003906000526020600020016000909190919091505542601260006003548152602001908152602001600020819055507fe473253a6109a155cfe91a788dfee0fb4642c9885e67c886204c47904623060c60035486600660003373ffffffffffffffffffffffffffffffffffffffff1673ffffffffffffffffffffffffffffffffffffffff1681526020019081526020016000206000018686604051612e54959493929190614628565b60405180910390a15050505050565b6060806060600060606000600a60008881526020019081526020016000206004015403612ec5576040517f08c379a0000000000000000000000000000000000000000000000000000000008152600401612ebc90613cd6565b60405180910390fd5b6000600a60008881526020019081526020016000206040518060e0016040529081600082018054612ef590613c59565b80601f0160208091040260200160405190810160405280929190818152602001828054612f2190613c59565b8015612f6e5780601f10612f4357610100808354040283529160200191612f6e565b820191906000526020600020905b815481529060010190602001808311612f5157829003601f168201915b50505050508152602001600182018054612f8790613c59565b80601f0160208091040260200160405190810160405280929190818152602001828054612fb390613c59565b80156130005780601f10612fd557610100808354040283529160200191613000565b820191906000526020600020905b815481529060010190602001808311612fe357829003601f168201915b505050505081526020016002820154815260200160038201805461302390613c59565b80601f016020809104026020016040519081016040528092919081815260200182805461304f90613c59565b801561309c5780601f106130715761010080835404028352916020019161309c565b820191906000526020600020905b81548152906001019060200180831161307f57829003601f168201915b5050505050815260200160048201548152602001600582015481526020016006820180546130c990613c59565b80601f01602080910402602001604051908101604052809291908181526020018280546130f590613c59565b80156131425780601f1061311757610100808354040283529160200191613142565b820191906000526020600020905b81548152906001019060200180831161312557829003601f168201915b50505050508152505090508060000151816020015182606001518360a001518460c00151955095509550955095505091939590929450565b82805461318690613c59565b90600052602060002090601f0160209004810192826131a857600085556131ef565b82601f106131c157805160ff19168380011785556131ef565b828001600101855582156131ef579182015b828111156131ee5782518255916020019190600101906131d3565b5b5090506131fc9190613365565b5090565b60405180606001604052806000815260200160008152602001600073ffffffffffffffffffffffffffffffffffffffff1681525090565b82805461324390613c59565b90600052602060002090601f01602090048101928261326557600085556132b3565b82601f1061327657805485556132b3565b828001600101855582156132b357600052602060002091601f016020900482015b828111156132b2578254825591600101919060010190613297565b5b5090506132c09190613365565b5090565b5080546132d090613c59565b6000825580601f106132e25750613301565b601f0160209004906000526020600020908101906133009190613365565b5b50565b50805460008255600302906000526020600020908101906133259190613382565b50565b6040518060e00160405280606081526020016060815260200160008152602001606081526020016000815260200160008152602001606081525090565b5b8082111561337e576000816000905550600101613366565b5090565b5b808211156133cc5760008082016000905560018201600090556002820160006101000a81549073ffffffffffffffffffffffffffffffffffffffff021916905550600301613383565b5090565b6000819050919050565b6133e3816133d0565b82525050565b60006020820190506133fe60008301846133da565b92915050565b6000604051905090565b600080fd5b600080fd5b600080fd5b600080fd5b6000601f19601f8301169050919050565b7f4e487b7100000000000000000000000000000000000000000000000000000000600052604160045260246000fd5b61346b82613422565b810181811067ffffffffffffffff8211171561348a57613489613433565b5b80604052505050565b600061349d613404565b90506134a98282613462565b919050565b600067ffffffffffffffff8211156134c9576134c8613433565b5b6134d282613422565b9050602081019050919050565b82818337600083830152505050565b60006135016134fc846134ae565b613493565b90508281526020810184848401111561351d5761351c61341d565b5b6135288482856134df565b509392505050565b600082601f83011261354557613544613418565b5b81356135558482602086016134ee565b91505092915050565b6000602082840312156135745761357361340e565b5b600082013567ffffffffffffffff81111561359257613591613413565b5b61359e84828501613530565b91505092915050565b6135b0816133d0565b81146135bb57600080fd5b50565b6000813590506135cd816135a7565b92915050565b6000602082840312156135e9576135e861340e565b5b60006135f7848285016135be565b91505092915050565b600081519050919050565b600082825260208201905092915050565b6000819050602082019050919050565b613635816133d0565b82525050565b6000613647838361362c565b60208301905092915050565b6000602082019050919050565b600061366b82613600565b613675818561360b565b93506136808361361c565b8060005b838110156136b1578151613698888261363b565b97506136a383613653565b925050600181019050613684565b5085935050505092915050565b600060208201905081810360008301526136d88184613660565b905092915050565b600080604083850312156136f7576136f661340e565b5b6000613705858286016135be565b9250506020613716858286016135be565b9150509250929050565b600081519050919050565b600082825260208201905092915050565b60005b8381101561375a57808201518184015260208101905061373f565b83811115613769576000848401525b50505050565b600061377a82613720565b613784818561372b565b935061379481856020860161373c565b61379d81613422565b840191505092915050565b600060608201905081810360008301526137c2818661376f565b90506137d160208301856133da565b81810360408301526137e38184613660565b9050949350505050565b600080600080608085870312156138075761380661340e565b5b600085013567ffffffffffffffff81111561382557613824613413565b5b61383187828801613530565b945050602085013567ffffffffffffffff81111561385257613851613413565b5b61385e87828801613530565b935050604061386f878288016135be565b925050606085013567ffffffffffffffff8111156138905761388f613413565b5b61389c87828801613530565b91505092959194509250565b600073ffffffffffffffffffffffffffffffffffffffff82169050919050565b60006138d3826138a8565b9050919050565b6138e3816138c8565b81146138ee57600080fd5b50565b600081359050613900816138da565b92915050565b6000806040838503121561391d5761391c61340e565b5b600061392b858286016138f1565b925050602061393c858286016135be565b9150509250929050565b60006020828403121561395c5761395b61340e565b5b600061396a848285016138f1565b91505092915050565b7f4e487b7100000000000000000000000000000000000000000000000000000000600052602160045260246000fd5b600481106139b3576139b2613973565b5b50565b60008190506139c4826139a2565b919050565b60006139d4826139b6565b9050919050565b6139e4816139c9565b82525050565b60006020820190506139ff60008301846139db565b92915050565b60008060008060808587031215613a1f57613a1e61340e565b5b6000613a2d878288016135be565b9450506020613a3e878288016135be565b9350506040613a4f878288016135be565b9250506060613a60878288016135be565b91505092959194509250565b600060a0820190508181036000830152613a86818861376f565b90508181036020830152613a9a818761376f565b90508181036040830152613aae818661376f565b9050613abd60608301856133da565b8181036080830152613acf818461376f565b90509695505050505050565b7f5573657220616c726561647920726567697374657265642e0000000000000000600082015250565b6000613b1160188361372b565b9150613b1c82613adb565b602082019050919050565b60006020820190508181036000830152613b4081613b04565b9050919050565b7f4e487b7100000000000000000000000000000000000000000000000000000000600052601160045260246000fd5b6000613b81826133d0565b91507fffffffffffffffffffffffffffffffffffffffffffffffffffffffffffffffff8203613bb357613bb2613b47565b5b600182019050919050565b7f4e6f742061206c697374656e65722e0000000000000000000000000000000000600082015250565b6000613bf4600f8361372b565b9150613bff82613bbe565b602082019050919050565b60006020820190508181036000830152613c2381613be7565b9050919050565b7f4e487b7100000000000000000000000000000000000000000000000000000000600052602260045260246000fd5b60006002820490506001821680613c7157607f821691505b602082108103613c8457613c83613c2a565b5b50919050565b7f44656d6f20646f6573206e6f742065786973742e000000000000000000000000600082015250565b6000613cc060148361372b565b9150613ccb82613c8a565b602082019050919050565b60006020820190508181036000830152613cef81613cb3565b9050919050565b7f446f6e6174696f6e20616d6f756e74206d75737420626520677265617465722060008201527f7468616e20302e00000000000000000000000000000000000000000000000000602082015250565b6000613d5260278361372b565b9150613d5d82613cf6565b604082019050919050565b60006020820190508181036000830152613d8181613d45565b9050919050565b613d91816138c8565b82525050565b6000606082019050613dac60008301866133da565b613db960208301856133da565b613dc66040830184613d88565b949350505050565b7f4e6f7420616e206172746973742e000000000000000000000000000000000000600082015250565b6000613e04600e8361372b565b9150613e0f82613dce565b602082019050919050565b60006020820190508181036000830152613e3381613df7565b9050919050565b600081905092915050565b6000613e5082613720565b613e5a8185613e3a565b9350613e6a81856020860161373c565b80840191505092915050565b6000613e828284613e45565b915081905092915050565b7f4475706c6963617465206861736820686173206265656e20646574656374656460008201527f2e00000000000000000000000000000000000000000000000000000000000000602082015250565b6000613ee960218361372b565b9150613ef482613e8d565b604082019050919050565b60006020820190508181036000830152613f1881613edc565b9050919050565b7f4e6f7420746865206f776e6572206f66207468652064656d6f2e000000000000600082015250565b6000613f55601a8361372b565b9150613f6082613f1f565b602082019050919050565b60006020820190508181036000830152613f8481613f48565b9050919050565b6000613f96826133d0565b9150613fa1836133d0565b9250827fffffffffffffffffffffffffffffffffffffffffffffffffffffffffffffffff03821115613fd657613fd5613b47565b5b828201905092915050565b7f4e487b7100000000000000000000000000000000000000000000000000000000600052603260045260246000fd5b600061401b826133d0565b9150614026836133d0565b9250817fffffffffffffffffffffffffffffffffffffffffffffffffffffffffffffffff048311821515161561405f5761405e613b47565b5b828202905092915050565b7f4e487b7100000000000000000000000000000000000000000000000000000000600052601260045260246000fd5b60006140a4826133d0565b91506140af836133d0565b9250826140bf576140be61406a565b5b828204905092915050565b60008190508160005260206000209050919050565b600081546140ec81613c59565b6140f6818661372b565b94506001821660008114614111576001811461412357614156565b60ff1983168652602086019350614156565b61412c856140ca565b60005b8381101561414e5781548189015260018201915060208101905061412f565b808801955050505b50505092915050565b6000819050919050565b600061418461417f61417a846138a8565b61415f565b6138a8565b9050919050565b600061419682614169565b9050919050565b60006141a88261418b565b9050919050565b6141b88161419d565b82525050565b600060c0820190506141d360008301896133da565b81810360208301526141e5818861376f565b905081810360408301526141f981876140df565b9050818103606083015261420d818661376f565b905061421c60808301856141af565b81810360a083015261422e818461376f565b9050979650505050505050565b7f536f6e6720646f6573206e6f742065786973742e000000000000000000000000600082015250565b600061427160148361372b565b915061427c8261423b565b602082019050919050565b600060208201905081810360008301526142a081614264565b9050919050565b7f4e6f7420746865206f776e6572206f662074686520736f6e672e000000000000600082015250565b60006142dd601a8361372b565b91506142e8826142a7565b602082019050919050565b6000602082019050818103600083015261430c816142d0565b9050919050565b600060408201905061432860008301856133da565b61433560208301846133da565b9392505050565b7f54686520736f6e6720686173206265656e207075626c69736865642e00000000600082015250565b6000614372601c8361372b565b915061437d8261433c565b602082019050919050565b600060208201905081810360008301526143a181614365565b9050919050565b7f4e6f74206120706c6174666f726d2e0000000000000000000000000000000000600082015250565b60006143de600f8361372b565b91506143e9826143a8565b602082019050919050565b6000602082019050818103600083015261440d816143d1565b9050919050565b7f4e6f7420746865206f776e6572206f662074686520706c6174666f726d2e0000600082015250565b600061444a601e8361372b565b915061445582614414565b602082019050919050565b600060208201905081810360008301526144798161443d565b9050919050565b7f507572636861736520616d6f756e74206d75737420626520677265617465722060008201527f7468616e207468652070726963652e0000000000000000000000000000000000602082015250565b60006144dc602f8361372b565b91506144e782614480565b604082019050919050565b6000602082019050818103600083015261450b816144cf565b9050919050565b7f50757263686173652064617973206d757374206265206772656174657220746860008201527f616e20302e000000000000000000000000000000000000000000000000000000602082015250565b600061456e60258361372b565b915061457982614512565b604082019050919050565b6000602082019050818103600083015261459d81614561565b9050919050565b600060e0820190506145b9600083018a6133da565b81810360208301526145cb81896140df565b905081810360408301526145df81886140df565b90506145ee60608301876133da565b818103608083015261460081866140df565b905061460f60a08301856133da565b61461c60c08301846133da565b98975050505050505050565b600060a08201905061463d60008301886133da565b818103602083015261464f818761376f565b9050818103604083015261466381866140df565b905061467260608301856133da565b8181036080830152614684818461376f565b9050969550505050505056fea2646970667358221220ecc0a1015fae945f883ca240f83f2cb8f9cb0d2f771188c6ec6a08f5b1b4f86664736f6c634300080d0033",
  "immutableReferences": {},
  "source": "// SPDX-License-Identifier: MIT\r\npragma solidity >=0.4.22 <0.9.0;\r\n\r\ncontract VibeStake {\r\n\r\n    uint256 artistIDTracker;\r\n    uint256 listenerIDTracker;\r\n    uint256 platformIDTracker;\r\n    uint256 demoIDTracker;\r\n    uint256 songIDTracker;\r\n\r\n    constructor() {\r\n        // Initialize the ID trackers\r\n        artistIDTracker = 0;\r\n        listenerIDTracker = 0;\r\n        platformIDTracker = 0;\r\n        demoIDTracker = 0;\r\n        songIDTracker = 0;\r\n    }\r\n\r\n    enum UserType {\r\n        UNDEFINED,\r\n        ARTIST, \r\n        LISTENER, // listener can also be a staker of the demo/music\r\n        PLATFORM\r\n    }\r\n    \r\n    struct Artist {\r\n        string artistname;\r\n        uint256 artistID;\r\n        address payable artistAddress;\r\n    }\r\n\r\n    struct Listener {\r\n        string name;\r\n        uint256 listenerID;\r\n    }\r\n\r\n    struct Platform {\r\n        string name;\r\n        uint256 platformID;\r\n    }\r\n\r\n    struct Demo {\r\n        string demoName;\r\n        string artistName;\r\n        uint256 artistID;\r\n        string genre;\r\n        uint256 demoID;\r\n        uint256 DonationDays;\r\n        string ipfsHash; // IPFS address for storing demo\r\n    }\r\n\r\n    struct Song {\r\n        string songName;\r\n        string artistName;\r\n        uint256 artistID;\r\n        string genre;\r\n        uint256 songID;\r\n        address payable artistAddress;\r\n        uint256 [] platformAuthorized; // platformID // to check the logic\r\n        string ipfsHash; // IPFS address for storing song\r\n        uint256 price; // price for the song / per day, unit is wei(1 ether = 10^18 wei) // to check the logic\r\n        StakeInfo[] stakeInfo; // to check the logic\r\n    }\r\n\r\n    struct Donation {\r\n        uint256 DemoID;\r\n        uint256 donationAmount;\r\n        address payable listenerAddress;\r\n    }\r\n    struct StakeInfo{\r\n        uint256 StakeProportion; // 0-100\r\n        address payable listenerAddress;\r\n    }\r\n\r\n    mapping(address => UserType) public identifyUser;\r\n\r\n    mapping(address => Artist) allArtists;\r\n    mapping(address => Listener) allListeners;\r\n    mapping(address => Platform) allPlatforms;\r\n    mapping(uint256 => Song) allSongs;\r\n    mapping(uint256 => Demo) allDemos;\r\n    mapping(address => uint256[]) public listenerOwnedSongs;\r\n    mapping(uint256 => uint256[]) public artistToDemos;\r\n\r\n    mapping(string => bool) musicHashUsed; // including song hash and demo hash\r\n    \r\n    mapping(uint256 => uint256[]) public artistToSongs; // artistID -> songIDs\r\n    mapping(uint256 => Donation[]) donationListenerRecord; // demoId => list of donations\r\n    mapping(uint256 => uint256[]) public platformToSongs; // platformID -> songIDs\r\n\r\n    // extra mappings for intellectual property protection\r\n    mapping(uint256 => uint256) timesSongPublished;\r\n    mapping(uint256 => uint256) timesDemoPublished;\r\n\r\n    function getDemosByArtist(uint256 _artistID) public view returns (uint256[] memory) {\r\n    return artistToDemos[_artistID];\r\n    }\r\n\r\n    function getDemoCount() public view returns (uint256) {\r\n        return demoIDTracker;\r\n    }\r\n\r\n\r\n    function getDemoDetails(uint256 _demoID) public view returns (\r\n        string memory,  // demoName\r\n        string memory,  // artistName\r\n        string memory,  // genre\r\n        uint256,        // DonationDays\r\n        string memory   // ipfsHash\r\n    ) {\r\n        require(allDemos[_demoID].demoID != 0, \"Demo does not exist.\");\r\n        Demo memory d = allDemos[_demoID];\r\n        return (d.demoName, d.artistName, d.genre, d.DonationDays, d.ipfsHash);\r\n    }\r\n    \r\n    function getUserType(address _user) public view returns (UserType) {\r\n        return identifyUser[_user];\r\n    }\r\n    function getArtistDetails() public view returns (string memory, uint256, uint256[] memory) {\r\n    require(identifyUser[msg.sender] == UserType.ARTIST, \"Not an artist.\");\r\n    Artist memory artist = allArtists[msg.sender];\r\n    uint256[] memory songs = artistToSongs[artist.artistID];\r\n    return (artist.artistname, artist.artistID, songs);\r\n    }\r\n\r\n    function registerArtist(string memory _name) public {\r\n        require(identifyUser[msg.sender] == UserType.UNDEFINED, \"User already registered.\");\r\n\r\n        artistIDTracker++;\r\n        identifyUser[msg.sender] = UserType.ARTIST;\r\n        allArtists[msg.sender] = Artist(_name, artistIDTracker, payable(msg.sender));\r\n    }\r\n\r\n    function registerListener(string memory _name) public {\r\n        require(identifyUser[msg.sender] == UserType.UNDEFINED, \"User already registered.\");\r\n        listenerIDTracker++;\r\n        identifyUser[msg.sender] = UserType.LISTENER;\r\n        allListeners[msg.sender] = Listener(_name, listenerIDTracker);\r\n    }\r\n\r\n    function registerPlatform(string memory _name) public {\r\n        require(identifyUser[msg.sender] == UserType.UNDEFINED, \"User already registered.\");\r\n        platformIDTracker++;\r\n        identifyUser[msg.sender] = UserType.PLATFORM;\r\n        allPlatforms[msg.sender] = Platform(_name, platformIDTracker);\r\n    }\r\n\r\n    function getNumSongs() public view returns (uint256) {\r\n    return songIDTracker;\r\n}\r\n\r\n\r\n    function getListenerDetails() public view returns (\r\n    string memory,    // listener name\r\n    uint256,          // listener ID\r\n    uint256[] memory  // owned song IDs\r\n) {\r\n    require(identifyUser[msg.sender] == UserType.LISTENER, \"Not a listener.\");\r\n    Listener memory user = allListeners[msg.sender];\r\n    uint256[] memory purchasedSongs = listenerOwnedSongs[msg.sender];\r\n    return (user.name, user.listenerID, purchasedSongs);\r\n}\r\n\r\n    // create demo\r\n    event demoAdded(\r\n        uint256 demoID,\r\n        string demoName,\r\n        string artistName,\r\n        uint256 donationDays,\r\n        string ipfsHash);\r\n\r\n    function addDemo(\r\n        string memory _demoname,\r\n        string memory _genre,\r\n        uint256 _donationdays,\r\n        string memory _ipfshash) public {\r\n        require(identifyUser[msg.sender] == UserType.ARTIST, \"Not an artist.\");\r\n        require(!musicHashUsed[_ipfshash], \"Duplicate hash has been detected.\");\r\n        \r\n        demoIDTracker += 1;\r\n        Demo memory newDemo;\r\n        newDemo.demoName = _demoname;\r\n        newDemo.artistName = allArtists[msg.sender].artistname;\r\n        newDemo.artistID = allArtists[msg.sender].artistID;\r\n        newDemo.genre = _genre;\r\n        newDemo.demoID = demoIDTracker;\r\n        newDemo.artistName = allArtists[msg.sender].artistname;\r\n        newDemo.DonationDays = _donationdays;\r\n        newDemo.ipfsHash = _ipfshash;\r\n        allDemos[demoIDTracker] = newDemo;\r\n        \r\n        musicHashUsed[_ipfshash] = true;\r\n        artistToDemos[allArtists[msg.sender].artistID].push(demoIDTracker);\r\n        timesDemoPublished[demoIDTracker] = block.timestamp;\r\n        emit demoAdded(\r\n            demoIDTracker,\r\n            _demoname,\r\n            allArtists[msg.sender].artistname,\r\n            _donationdays,\r\n            _ipfshash\r\n        );\r\n    }\r\n\r\n    // donate the demo and send the donation to the contract temporarily\r\n    // the contract will hold the donation until the song is published\r\n    event demoDonation(\r\n        uint256 demoID,\r\n        uint256 donationAmount,\r\n        address listenerAddress);\r\n    function donateDemoListener(uint256 _demoID) public payable {\r\n        require(identifyUser[msg.sender] == UserType.LISTENER, \"Not a listener.\");\r\n        require(allDemos[_demoID].demoID != 0, \"Demo does not exist.\");\r\n        require(msg.value > 0, \"Donation amount must be greater than 0.\");\r\n\r\n        Donation memory newDonation;\r\n        newDonation.DemoID = _demoID;\r\n        newDonation.donationAmount = msg.value;\r\n        newDonation.listenerAddress = payable(msg.sender);\r\n        \r\n        donationListenerRecord[_demoID].push(newDonation);\r\n\r\n        emit demoDonation(\r\n            _demoID,\r\n            msg.value,\r\n            msg.sender\r\n        );\r\n    }\r\n\r\n    // return money to the listener if the song is not published after the donation days\r\n    // but the function can only be called after the donation days and should be called by the listener\r\n    function returnDonation(uint256 _demoID) public {\r\n        require(identifyUser[msg.sender] == UserType.LISTENER, \"Not a listener.\");\r\n        require(allDemos[_demoID].demoID != 0, \"Demo does not exist.\"); // if song published, the demo will be deleted\r\n        require(block.timestamp > timesDemoPublished[_demoID] + allDemos[_demoID].DonationDays * 1 days, \"The song has been published.\");\r\n\r\n        for (uint256 i = 0; i < donationListenerRecord[_demoID].length; i++) {\r\n            if (donationListenerRecord[_demoID][i].listenerAddress == msg.sender) {\r\n                donationListenerRecord[_demoID][i].listenerAddress.transfer(donationListenerRecord[_demoID][i].donationAmount);\r\n                delete donationListenerRecord[_demoID][i];\r\n            }\r\n        }\r\n    }\r\n\r\n    // create song, remove demo and distribute the donation to the artist\r\n    event songAdded(\r\n        uint256 songID,\r\n        string songName,\r\n        string artistName,\r\n        string genre,\r\n        address artistAddress,\r\n        string ipfsHash);\r\n\r\n    function addSong(\r\n    string memory _songName,\r\n    string memory _genre,\r\n    uint256 _demoID,\r\n    string memory _ipfshash\r\n    ) public {\r\n    require(identifyUser[msg.sender] == UserType.ARTIST, \"Not an artist.\");\r\n    require(allDemos[_demoID].demoID != 0, \"Demo does not exist.\");\r\n    require(!musicHashUsed[_ipfshash], \"Duplicate hash has been detected.\");\r\n    require(allDemos[_demoID].artistID == allArtists[msg.sender].artistID, \"Not the owner of the demo.\");\r\n\r\n    songIDTracker += 1;\r\n\r\n    Song storage newSong = allSongs[songIDTracker];\r\n    newSong.songName = _songName;\r\n    newSong.artistName = allArtists[msg.sender].artistname;\r\n    newSong.artistID = allArtists[msg.sender].artistID;\r\n    newSong.genre = _genre;\r\n    newSong.songID = songIDTracker;\r\n    newSong.artistAddress = allArtists[msg.sender].artistAddress;\r\n    newSong.ipfsHash = _ipfshash;\r\n    newSong.price = 0; \r\n\r\n    musicHashUsed[_ipfshash] = true;\r\n    artistToSongs[allArtists[msg.sender].artistID].push(songIDTracker);\r\n    timesSongPublished[songIDTracker] = block.timestamp;\r\n\r\n    string memory demoHash = allDemos[_demoID].ipfsHash;\r\n    delete allDemos[_demoID];\r\n    musicHashUsed[demoHash] = false;\r\n\r\n    uint256 totalDonationAmount = 0;\r\n    uint256 donationCount = donationListenerRecord[_demoID].length;\r\n    for (uint256 i = 0; i < donationCount; i++) {\r\n        totalDonationAmount += donationListenerRecord[_demoID][i].donationAmount;\r\n    }\r\n\r\n    for (uint256 i = 0; i < donationCount; i++) {\r\n        newSong.stakeInfo.push(StakeInfo({\r\n            StakeProportion: donationListenerRecord[_demoID][i].donationAmount * 100 / totalDonationAmount,\r\n            listenerAddress: donationListenerRecord[_demoID][i].listenerAddress\r\n        }));\r\n    }\r\n\r\n    delete donationListenerRecord[_demoID];\r\n\r\n    allArtists[msg.sender].artistAddress.transfer(totalDonationAmount);\r\n\r\n    emit songAdded(\r\n        songIDTracker,\r\n        _songName,\r\n        allArtists[msg.sender].artistname,\r\n        _genre,\r\n        allArtists[msg.sender].artistAddress,\r\n        _ipfshash\r\n    );\r\n}\r\n\r\n    // set the price for the song\r\n    event songPriceSet(\r\n        uint256 songID,\r\n        uint256 price);\r\n    function setSongPrice(\r\n        uint256 _songID,\r\n        uint256 _price) public {\r\n        require(identifyUser[msg.sender] == UserType.ARTIST, \"Not an artist.\");\r\n        require(allSongs[_songID].songID != 0, \"Song does not exist.\");\r\n        require(allSongs[_songID].artistAddress == msg.sender, \"Not the owner of the song.\");\r\n        allSongs[_songID].price = _price;\r\n\r\n        emit songPriceSet(\r\n            _songID,\r\n            _price\r\n        );\r\n    }\r\n    \r\n\r\n    // platform purchase the right to publish the song for certain days\r\n    event platformPurchase(\r\n        uint256 songID,\r\n        string songName,\r\n        string artistName,\r\n        uint256 platformID,\r\n        string platformName,\r\n        uint256 purchaseAmount,\r\n        uint256 purchaseDays);\r\n\r\n    function purchaseSong(\r\n        uint256 _songID,\r\n        uint256 _platformID,\r\n        uint256 _purchaseAmount,\r\n        uint256 _purchaseDays) public {\r\n        require(identifyUser[msg.sender] == UserType.PLATFORM, \"Not a platform.\");\r\n        require(allSongs[_songID].songID != 0, \"Song does not exist.\");\r\n        require(allPlatforms[msg.sender].platformID == _platformID, \"Not the owner of the platform.\");\r\n        require(_purchaseAmount > allSongs[_songID].price * _purchaseDays, \"Purchase amount must be greater than the price.\");\r\n        require(_purchaseDays > 0, \"Purchase days must be greater than 0.\");\r\n\r\n        // calculate the shares owned by the listener, and the default is 90% to the artist and 10% to the listener\r\n        uint256 artistShare = _purchaseAmount * 90 / 100;\r\n        uint256 listenerShare = _purchaseAmount * 10 / 100;\r\n        // transfer the purchase amount to the artist\r\n        allSongs[_songID].artistAddress.transfer(artistShare);\r\n\r\n        // calculate total donation amount from listeners\r\n        uint256 totalDonationAmount = 0;\r\n        for (uint256 i = 0; i < donationListenerRecord[_songID].length; i++) {\r\n            totalDonationAmount += donationListenerRecord[_songID][i].donationAmount;\r\n        }\r\n        // transfer the listener share to the listener according to their donation amount\r\n        for (uint256 i = 0; i < allSongs[_songID].stakeInfo.length; i++) {\r\n            uint256 listenerShareAmount = listenerShare * allSongs[_songID].stakeInfo[i].StakeProportion / 100;\r\n            allSongs[_songID].stakeInfo[i].listenerAddress.transfer(listenerShareAmount);\r\n        }\r\n        \r\n        \r\n        emit platformPurchase(\r\n            _songID,\r\n            allSongs[_songID].songName,\r\n            allSongs[_songID].artistName,\r\n            allPlatforms[msg.sender].platformID,\r\n            allPlatforms[msg.sender].name,\r\n            _purchaseAmount,\r\n            _purchaseDays\r\n        );\r\n        // add the song to the platform\r\n        platformToSongs[_platformID].push(_songID);\r\n        // add the platform to the song\r\n        allSongs[_songID].platformAuthorized.push(_platformID);\r\n        \r\n        \r\n    }\r\n\r\n    // // unauthorize the platform to publish the song after expiration\r\n    // event platformUnauthorized(\r\n    //     uint256 songID,\r\n    //     string songName,\r\n    //     string artistName,\r\n    //     uint256 platformID,\r\n    //     string platformName);\r\n    // function unAuthorizePlatform(){}\r\n\r\n    \r\n}\r\n",
  "sourcePath": "/Users/Shared/vivi////FT5003GN/final project/VibeStake_contracts/contracts/VibeStake.sol",
  "compiler": {
    "name": "solc",
    "version": "0.8.13+commit.abaa5c0e.Emscripten.clang"
  },
  "schemaVersion": "3.4.16",
  "updatedAt": "2025-04-02T15:16:30.703Z",
  "networkType": "ethereum",
  "devdoc": {
    "kind": "dev",
    "methods": {},
    "version": 1
  },
  "userdoc": {
    "kind": "user",
    "methods": {},
    "version": 1
  }
}